:020000040800F2
:1000000000200020A5020008F5020008F502000803
:1000100000000000000000000000000000000000E0
:10002000000000000000000000000000F5020008D1
:100030000000000000000000F50200086501000853
:10004000F5020008F5020008F5020008F5020008B4
:10005000F5020008F5020008F5020008F5020008A4
:10006000F5020008F5020008F5020008F502000894
:10007000F5020008F5020008F5020008F502000884
:10008000F5020008F502000800000000F502000873
:10009000F5020008F5020008F5020008F502000864
:1000A000F5020008F5020008F5020008F502000854
:1000B000F502000800000000F50200080000000042
:0400C0005FF808F1EC
:1000C400002934D00123002210B488422CD3012407
:1000D4002407A14204D2814202D209011B01F8E79C
:1000E400E400A14204D2814202D249005B00F8E755
:1000F400884201D3401A1A434C08A04202D3001B81
:100104005C0822438C08A04202D3001B9C082243B3
:10011400CC08A04202D3001BDC082243002803D0F1
:100124001B0901D00909E3E7101C10BC7047002823
:1001340001D00020C04307B4024802A14018029035
:1001440003BDC046190000000029F0D003B5FFF735
:10015400B9FF0EBC4243891A1847C0467047C046CF
:10016400084B1A88642A02D001321A8008E000225F
:100174001A80054B80225969520089B24A409A82FA
:100184007047C046040000200008004808B5114B21
:100194008022596912030A435A610F4B802252028A
:1001A4001A600E4B64211868FFF78AFF0C4B9842C3
:1001B40000D9FEE70B4B0C4A01385860106AC02185
:1001C4000002000A09060143116200229A60072214
:1001D4001A60EEE70010024000080048000000200A
:1001E400FFFFFF0010E000E000ED00E0254B13B539
:1001F4001968012211431960586823490F240140EA
:100204005960186821490140196018682049014063
:10021400196058681F4908405860D86AA043D862DA
:100224001C6B1D4820401863586B90430022586390
:100234009A6000920192194A112010605A685A601B
:100244005A685A605A68114059605968A02292034A
:100254000A435A601968802282400A431A60196866
:10026400084A8801FBD551680320814351605168D5
:1002740002200143516059680C220A40082AFAD12D
:1002840013BDC046001002400CB8FFF8FFFFF6FE95
:10029400FFFFFBFFFFFFC0FFACFEFFFF002002409B
:1002A4000D488546002103E00C4B5B584350043154
:1002B4000B480C4B42189A42F6D30B4A02E0002337
:1002C40013600432094B9A42F9D3FFF78FFF00F011
:1002D40011F8FFF75BFFFEE7002000205803000839
:1002E400000000200400002004000020080000207A
:1002F400FEE7000070B50D4E0D4D0024AD1BAD1092
:1003040005D0A300F35801349847A542F9D100F071
:1003140015F8084E084D0024AD1BAD1005D0A30000
:10032400F35801349847A542F9D170BD000000008C
:10033400000000000000000000000000F8B5C04606
:10034400F8BC08BC9E467047F8B5C046F8BC08BC6B
:040354009E4670470A
:04035800006CDC0257
:04000005080002A548
:00000001FF
